{
  "_format": "hh-sol-artifact-1",
  "contractName": "Payment",
  "sourceName": "contracts/Payment.sol",
  "abi": [
    {
      "anonymous": false,
      "inputs": [
        {
          "indexed": true,
          "internalType": "address",
          "name": "payer",
          "type": "address"
        },
        {
          "indexed": false,
          "internalType": "uint256",
          "name": "amount",
          "type": "uint256"
        },
        {
          "indexed": false,
          "internalType": "string",
          "name": "paymentReference",
          "type": "string"
        }
      ],
      "name": "Paid",
      "type": "event"
    },
    {
      "inputs": [],
      "name": "owner",
      "outputs": [
        {
          "internalType": "address",
          "name": "",
          "type": "address"
        }
      ],
      "stateMutability": "view",
      "type": "function"
    },
    {
      "inputs": [
        {
          "internalType": "string",
          "name": "paymentReference",
          "type": "string"
        }
      ],
      "name": "pay",
      "outputs": [],
      "stateMutability": "payable",
      "type": "function"
    },
    {
      "inputs": [
        {
          "internalType": "uint256",
          "name": "amount",
          "type": "uint256"
        }
      ],
      "name": "withdraw",
      "outputs": [],
      "stateMutability": "nonpayable",
      "type": "function"
    }
  ],
  "bytecode": "0x6080604052336000806101000a81548173ffffffffffffffffffffffffffffffffffffffff021916908373ffffffffffffffffffffffffffffffffffffffff160217905550348015604f57600080fd5b506105868061005f6000396000f3fe6080604052600436106100345760003560e01c80632b66d72e146100395780632e1a7d4d146100555780638da5cb5b1461007e575b600080fd5b610053600480360381019061004e91906102cd565b6100a9565b005b34801561006157600080fd5b5061007c60048036038101906100779190610350565b610142565b005b34801561008a57600080fd5b5061009361023a565b6040516100a091906103be565b60405180910390f35b600034116100ec576040517f08c379a00000000000000000000000000000000000000000000000000000000081526004016100e390610436565b60405180910390fd5b3373ffffffffffffffffffffffffffffffffffffffff167f301e53e15e76435e17105dd850449ba166cf4c46826c93a338cb73191b5a7420348484604051610136939291906104b2565b60405180910390a25050565b60008054906101000a900473ffffffffffffffffffffffffffffffffffffffff1673ffffffffffffffffffffffffffffffffffffffff163373ffffffffffffffffffffffffffffffffffffffff16146101d0576040517f08c379a00000000000000000000000000000000000000000000000000000000081526004016101c790610530565b60405180910390fd5b60008054906101000a900473ffffffffffffffffffffffffffffffffffffffff1673ffffffffffffffffffffffffffffffffffffffff166108fc829081150290604051600060405180830381858888f19350505050158015610236573d6000803e3d6000fd5b5050565b60008054906101000a900473ffffffffffffffffffffffffffffffffffffffff1681565b600080fd5b600080fd5b600080fd5b600080fd5b600080fd5b60008083601f84011261028d5761028c610268565b5b8235905067ffffffffffffffff8111156102aa576102a961026d565b5b6020830191508360018202830111156102c6576102c5610272565b5b9250929050565b600080602083850312156102e4576102e361025e565b5b600083013567ffffffffffffffff81111561030257610301610263565b5b61030e85828601610277565b92509250509250929050565b6000819050919050565b61032d8161031a565b811461033857600080fd5b50565b60008135905061034a81610324565b92915050565b6000602082840312156103665761036561025e565b5b60006103748482850161033b565b91505092915050565b600073ffffffffffffffffffffffffffffffffffffffff82169050919050565b60006103a88261037d565b9050919050565b6103b88161039d565b82525050565b60006020820190506103d360008301846103af565b92915050565b600082825260208201905092915050565b7f4e6f2076616c75652073656e7400000000000000000000000000000000000000600082015250565b6000610420600d836103d9565b915061042b826103ea565b602082019050919050565b6000602082019050818103600083015261044f81610413565b9050919050565b61045f8161031a565b82525050565b82818337600083830152505050565b6000601f19601f8301169050919050565b600061049183856103d9565b935061049e838584610465565b6104a783610474565b840190509392505050565b60006040820190506104c76000830186610456565b81810360208301526104da818486610485565b9050949350505050565b7f6f6e6c79206f776e657200000000000000000000000000000000000000000000600082015250565b600061051a600a836103d9565b9150610525826104e4565b602082019050919050565b600060208201905081810360008301526105498161050d565b905091905056fea2646970667358221220be1863f2aa300c8ee290c6636617fe3fd4dbe47bcc46a4483eda840b8b5f03e064736f6c634300081c0033",
  "linkReferences": {},
  "deployedLinkReferences": {}
}